{"contracts/FreeVoting.sol":{"FreeVoting":{"abi":[{"inputs":[{"internalType":"string","name":"_question","type":"string"},{"internalType":"string[]","name":"_availableResponses","type":"string[]"},{"internalType":"uint256","name":"_durationInMinutes","type":"uint256"}],"stateMutability":"nonpayable","type":"constructor"},{"inputs":[],"name":"getAllVotesForResponses","outputs":[{"components":[{"internalType":"string","name":"response","type":"string"},{"internalType":"uint256","name":"voteCount","type":"uint256"}],"internalType":"struct FreeVoting.Response[]","name":"","type":"tuple[]"}],"stateMutability":"view","type":"function"},{"inputs":[],"name":"getRemainingTime","outputs":[{"internalType":"uint256","name":"","type":"uint256"}],"stateMutability":"view","type":"function"},{"inputs":[],"name":"getVotingStatus","outputs":[{"internalType":"bool","name":"","type":"bool"}],"stateMutability":"view","type":"function"},{"inputs":[],"name":"question","outputs":[{"internalType":"string","name":"","type":"string"}],"stateMutability":"view","type":"function"},{"inputs":[{"internalType":"uint256","name":"","type":"uint256"}],"name":"responses","outputs":[{"internalType":"string","name":"response","type":"string"},{"internalType":"uint256","name":"voteCount","type":"uint256"}],"stateMutability":"view","type":"function"},{"inputs":[{"internalType":"uint256","name":"_responseIndex","type":"uint256"}],"name":"vote","outputs":[],"stateMutability":"nonpayable","type":"function"},{"inputs":[],"name":"vote_end_date","outputs":[{"internalType":"uint256","name":"","type":"uint256"}],"stateMutability":"view","type":"function"},{"inputs":[],"name":"vote_start_date","outputs":[{"internalType":"uint256","name":"","type":"uint256"}],"stateMutability":"view","type":"function"},{"inputs":[{"internalType":"address","name":"","type":"address"}],"name":"voters","outputs":[{"internalType":"bool","name":"","type":"bool"}],"stateMutability":"view","type":"function"}],"evm":{"bytecode":{"linkReferences":{},"object":"60806040523480156200001157600080fd5b50604051620015bd380380620015bd83398181016040528101906200003791906200042c565b826000908162000048919062000707565b5060005b8251811015620000ee5760016040518060400160405280858481518110620000795762000078620007ee565b5b60200260200101518152602001600081525090806001815401808255809150506001900390600052602060002090600202016000909190919091506000820151816000019081620000cb919062000707565b506020820151816001015550508080620000e5906200084c565b9150506200004c565b5033600260006101000a81548173ffffffffffffffffffffffffffffffffffffffff021916908373ffffffffffffffffffffffffffffffffffffffff16021790555042600481905550603c8162000146919062000899565b42620001539190620008e4565b6005819055505050506200091f565b6000604051905090565b600080fd5b600080fd5b600080fd5b600080fd5b6000601f19601f8301169050919050565b7f4e487b7100000000000000000000000000000000000000000000000000000000600052604160045260246000fd5b620001cb8262000180565b810181811067ffffffffffffffff82111715620001ed57620001ec62000191565b5b80604052505050565b60006200020262000162565b9050620002108282620001c0565b919050565b600067ffffffffffffffff82111562000233576200023262000191565b5b6200023e8262000180565b9050602081019050919050565b60005b838110156200026b5780820151818401526020810190506200024e565b60008484015250505050565b60006200028e620002888462000215565b620001f6565b905082815260208101848484011115620002ad57620002ac6200017b565b5b620002ba8482856200024b565b509392505050565b600082601f830112620002da57620002d962000176565b5b8151620002ec84826020860162000277565b91505092915050565b600067ffffffffffffffff82111562000313576200031262000191565b5b602082029050602081019050919050565b600080fd5b6000620003406200033a84620002f5565b620001f6565b9050808382526020820190506020840283018581111562000366576200036562000324565b5b835b81811015620003b457805167ffffffffffffffff8111156200038f576200038e62000176565b5b8086016200039e8982620002c2565b8552602085019450505060208101905062000368565b5050509392505050565b600082601f830112620003d657620003d562000176565b5b8151620003e884826020860162000329565b91505092915050565b6000819050919050565b6200040681620003f1565b81146200041257600080fd5b50565b6000815190506200042681620003fb565b92915050565b6000806000606084860312156200044857620004476200016c565b5b600084015167ffffffffffffffff81111562000469576200046862000171565b5b6200047786828701620002c2565b935050602084015167ffffffffffffffff8111156200049b576200049a62000171565b5b620004a986828701620003be565b9250506040620004bc8682870162000415565b9150509250925092565b600081519050919050565b7f4e487b7100000000000000000000000000000000000000000000000000000000600052602260045260246000fd5b600060028204905060018216806200051957607f821691505b6020821081036200052f576200052e620004d1565b5b50919050565b60008190508160005260206000209050919050565b60006020601f8301049050919050565b600082821b905092915050565b600060088302620005997fffffffffffffffffffffffffffffffffffffffffffffffffffffffffffffffff826200055a565b620005a586836200055a565b95508019841693508086168417925050509392505050565b6000819050919050565b6000620005e8620005e2620005dc84620003f1565b620005bd565b620003f1565b9050919050565b6000819050919050565b6200060483620005c7565b6200061c6200061382620005ef565b84845462000567565b825550505050565b600090565b6200063362000624565b62000640818484620005f9565b505050565b5b8181101562000668576200065c60008262000629565b60018101905062000646565b5050565b601f821115620006b757620006818162000535565b6200068c846200054a565b810160208510156200069c578190505b620006b4620006ab856200054a565b83018262000645565b50505b505050565b600082821c905092915050565b6000620006dc60001984600802620006bc565b1980831691505092915050565b6000620006f78383620006c9565b9150826002028217905092915050565b6200071282620004c6565b67ffffffffffffffff8111156200072e576200072d62000191565b5b6200073a825462000500565b620007478282856200066c565b600060209050601f8311600181146200077f57600084156200076a578287015190505b620007768582620006e9565b865550620007e6565b601f1984166200078f8662000535565b60005b82811015620007b95784890151825560018201915060208501945060208101905062000792565b86831015620007d95784890151620007d5601f891682620006c9565b8355505b6001600288020188555050505b505050505050565b7f4e487b7100000000000000000000000000000000000000000000000000000000600052603260045260246000fd5b7f4e487b7100000000000000000000000000000000000000000000000000000000600052601160045260246000fd5b60006200085982620003f1565b91507fffffffffffffffffffffffffffffffffffffffffffffffffffffffffffffffff82036200088e576200088d6200081d565b5b600182019050919050565b6000620008a682620003f1565b9150620008b383620003f1565b9250828202620008c381620003f1565b91508282048414831517620008dd57620008dc6200081d565b5b5092915050565b6000620008f182620003f1565b9150620008fe83620003f1565b92508282019050808211156200091957620009186200081d565b5b92915050565b610c8e806200092f6000396000f3fe608060405234801561001057600080fd5b50600436106100935760003560e01c8063a3ec138d11610066578063a3ec138d1461010e578063a616c4e51461013e578063e6e6a3331461015c578063ed35d7e51461017a578063efb98bcf146101ab57610093565b80630121b93f146100985780633fad9ae0146100b4578063581c281c146100d257806388cc410a146100f0575b600080fd5b6100b260048036038101906100ad9190610666565b6101c9565b005b6100bc610333565b6040516100c99190610723565b60405180910390f35b6100da6103c1565b6040516100e79190610760565b60405180910390f35b6100f86103db565b60405161010591906108d3565b60405180910390f35b61012860048036038101906101239190610953565b6104d6565b6040516101359190610760565b60405180910390f35b6101466104f6565b604051610153919061098f565b60405180910390f35b6101646104fc565b604051610171919061098f565b60405180910390f35b610194600480360381019061018f9190610666565b610502565b6040516101a29291906109aa565b60405180910390f35b6101b36105be565b6040516101c0919061098f565b60405180910390f35b600360003373ffffffffffffffffffffffffffffffffffffffff1673ffffffffffffffffffffffffffffffffffffffff16815260200190815260200160002060009054906101000a900460ff1615610256576040517f08c379a000000000000000000000000000000000000000000000000000000000815260040161024d90610a26565b60405180910390fd5b600180549050811061029d576040517f08c379a000000000000000000000000000000000000000000000000000000000815260040161029490610a92565b60405180910390fd5b600181815481106102b1576102b0610ab2565b5b906000526020600020906002020160010160008154809291906102d390610b10565b91905055506001600360003373ffffffffffffffffffffffffffffffffffffffff1673ffffffffffffffffffffffffffffffffffffffff16815260200190815260200160002060006101000a81548160ff02191690831515021790555050565b6000805461034090610b87565b80601f016020809104026020016040519081016040528092919081815260200182805461036c90610b87565b80156103b95780601f1061038e576101008083540402835291602001916103b9565b820191906000526020600020905b81548152906001019060200180831161039c57829003601f168201915b505050505081565b600060045442101580156103d6575060055442105b905090565b60606001805480602002602001604051908101604052809291908181526020016000905b828210156104cd578382906000526020600020906002020160405180604001604052908160008201805461043290610b87565b80601f016020809104026020016040519081016040528092919081815260200182805461045e90610b87565b80156104ab5780601f10610480576101008083540402835291602001916104ab565b820191906000526020600020905b81548152906001019060200180831161048e57829003601f168201915b50505050508152602001600182015481525050815260200190600101906103ff565b50505050905090565b60036020528060005260406000206000915054906101000a900460ff1681565b60045481565b60055481565b6001818154811061051257600080fd5b906000526020600020906002020160009150905080600001805461053590610b87565b80601f016020809104026020016040519081016040528092919081815260200182805461056190610b87565b80156105ae5780601f10610583576101008083540402835291602001916105ae565b820191906000526020600020905b81548152906001019060200180831161059157829003601f168201915b5050505050908060010154905082565b6000600454421015610605576040517f08c379a00000000000000000000000000000000000000000000000000000000081526004016105fc90610c04565b60405180910390fd5b60055442106106175760009050610628565b426005546106259190610c24565b90505b90565b600080fd5b6000819050919050565b61064381610630565b811461064e57600080fd5b50565b6000813590506106608161063a565b92915050565b60006020828403121561067c5761067b61062b565b5b600061068a84828501610651565b91505092915050565b600081519050919050565b600082825260208201905092915050565b60005b838110156106cd5780820151818401526020810190506106b2565b60008484015250505050565b6000601f19601f8301169050919050565b60006106f582610693565b6106ff818561069e565b935061070f8185602086016106af565b610718816106d9565b840191505092915050565b6000602082019050818103600083015261073d81846106ea565b905092915050565b60008115159050919050565b61075a81610745565b82525050565b60006020820190506107756000830184610751565b92915050565b600081519050919050565b600082825260208201905092915050565b6000819050602082019050919050565b600082825260208201905092915050565b60006107c382610693565b6107cd81856107a7565b93506107dd8185602086016106af565b6107e6816106d9565b840191505092915050565b6107fa81610630565b82525050565b6000604083016000830151848203600086015261081d82826107b8565b915050602083015161083260208601826107f1565b508091505092915050565b60006108498383610800565b905092915050565b6000602082019050919050565b60006108698261077b565b6108738185610786565b93508360208202850161088585610797565b8060005b858110156108c157848403895281516108a2858261083d565b94506108ad83610851565b925060208a01995050600181019050610889565b50829750879550505050505092915050565b600060208201905081810360008301526108ed818461085e565b905092915050565b600073ffffffffffffffffffffffffffffffffffffffff82169050919050565b6000610920826108f5565b9050919050565b61093081610915565b811461093b57600080fd5b50565b60008135905061094d81610927565b92915050565b6000602082840312156109695761096861062b565b5b60006109778482850161093e565b91505092915050565b61098981610630565b82525050565b60006020820190506109a46000830184610980565b92915050565b600060408201905081810360008301526109c481856106ea565b90506109d36020830184610980565b9392505050565b7f596f75206861766520616c726561647920766f74656400000000000000000000600082015250565b6000610a1060168361069e565b9150610a1b826109da565b602082019050919050565b60006020820190508181036000830152610a3f81610a03565b9050919050565b7f496e76616c696420726573706f6e736520696e64657800000000000000000000600082015250565b6000610a7c60168361069e565b9150610a8782610a46565b602082019050919050565b60006020820190508181036000830152610aab81610a6f565b9050919050565b7f4e487b7100000000000000000000000000000000000000000000000000000000600052603260045260246000fd5b7f4e487b7100000000000000000000000000000000000000000000000000000000600052601160045260246000fd5b6000610b1b82610630565b91507fffffffffffffffffffffffffffffffffffffffffffffffffffffffffffffffff8203610b4d57610b4c610ae1565b5b600182019050919050565b7f4e487b7100000000000000000000000000000000000000000000000000000000600052602260045260246000fd5b60006002820490506001821680610b9f57607f821691505b602082108103610bb257610bb1610b58565b5b50919050565b7f566f746520686173206e6f742073746172746564207965740000000000000000600082015250565b6000610bee60188361069e565b9150610bf982610bb8565b602082019050919050565b60006020820190508181036000830152610c1d81610be1565b9050919050565b6000610c2f82610630565b9150610c3a83610630565b9250828203905081811115610c5257610c51610ae1565b5b9291505056fea2646970667358221220ee87361a33393acdff92809ba1c0a92e554d663a26989367d90078760349ce5a64736f6c63430008130033","opcodes":"PUSH1 0x80 PUSH1 0x40 MSTORE CALLVALUE DUP1 ISZERO PUSH3 0x11 JUMPI PUSH1 0x0 DUP1 REVERT JUMPDEST POP PUSH1 0x40 MLOAD PUSH3 0x15BD CODESIZE SUB DUP1 PUSH3 0x15BD DUP4 CODECOPY DUP2 DUP2 ADD PUSH1 0x40 MSTORE DUP2 ADD SWAP1 PUSH3 0x37 SWAP2 SWAP1 PUSH3 0x42C JUMP JUMPDEST DUP3 PUSH1 0x0 SWAP1 DUP2 PUSH3 0x48 SWAP2 SWAP1 PUSH3 0x707 JUMP JUMPDEST POP PUSH1 0x0 JUMPDEST DUP3 MLOAD DUP2 LT ISZERO PUSH3 0xEE JUMPI PUSH1 0x1 PUSH1 0x40 MLOAD DUP1 PUSH1 0x40 ADD PUSH1 0x40 MSTORE DUP1 DUP6 DUP5 DUP2 MLOAD DUP2 LT PUSH3 0x79 JUMPI PUSH3 0x78 PUSH3 0x7EE JUMP JUMPDEST JUMPDEST PUSH1 0x20 MUL PUSH1 0x20 ADD ADD MLOAD DUP2 MSTORE PUSH1 0x20 ADD PUSH1 0x0 DUP2 MSTORE POP SWAP1 DUP1 PUSH1 0x1 DUP2 SLOAD ADD DUP1 DUP3 SSTORE DUP1 SWAP2 POP POP PUSH1 0x1 SWAP1 SUB SWAP1 PUSH1 0x0 MSTORE PUSH1 0x20 PUSH1 0x0 KECCAK256 SWAP1 PUSH1 0x2 MUL ADD PUSH1 0x0 SWAP1 SWAP2 SWAP1 SWAP2 SWAP1 SWAP2 POP PUSH1 0x0 DUP3 ADD MLOAD DUP2 PUSH1 0x0 ADD SWAP1 DUP2 PUSH3 0xCB SWAP2 SWAP1 PUSH3 0x707 JUMP JUMPDEST POP PUSH1 0x20 DUP3 ADD MLOAD DUP2 PUSH1 0x1 ADD SSTORE POP POP DUP1 DUP1 PUSH3 0xE5 SWAP1 PUSH3 0x84C JUMP JUMPDEST SWAP2 POP POP PUSH3 0x4C JUMP JUMPDEST POP CALLER PUSH1 0x2 PUSH1 0x0 PUSH2 0x100 EXP DUP2 SLOAD DUP2 PUSH20 0xFFFFFFFFFFFFFFFFFFFFFFFFFFFFFFFFFFFFFFFF MUL NOT AND SWAP1 DUP4 PUSH20 0xFFFFFFFFFFFFFFFFFFFFFFFFFFFFFFFFFFFFFFFF AND MUL OR SWAP1 SSTORE POP TIMESTAMP PUSH1 0x4 DUP2 SWAP1 SSTORE POP PUSH1 0x3C DUP2 PUSH3 0x146 SWAP2 SWAP1 PUSH3 0x899 JUMP JUMPDEST TIMESTAMP PUSH3 0x153 SWAP2 SWAP1 PUSH3 0x8E4 JUMP JUMPDEST PUSH1 0x5 DUP2 SWAP1 SSTORE POP POP POP POP PUSH3 0x91F JUMP JUMPDEST PUSH1 0x0 PUSH1 0x40 MLOAD SWAP1 POP SWAP1 JUMP JUMPDEST PUSH1 0x0 DUP1 REVERT JUMPDEST PUSH1 0x0 DUP1 REVERT JUMPDEST PUSH1 0x0 DUP1 REVERT JUMPDEST PUSH1 0x0 DUP1 REVERT JUMPDEST PUSH1 0x0 PUSH1 0x1F NOT PUSH1 0x1F DUP4 ADD AND SWAP1 POP SWAP2 SWAP1 POP JUMP JUMPDEST PUSH32 0x4E487B7100000000000000000000000000000000000000000000000000000000 PUSH1 0x0 MSTORE PUSH1 0x41 PUSH1 0x4 MSTORE PUSH1 0x24 PUSH1 0x0 REVERT JUMPDEST PUSH3 0x1CB DUP3 PUSH3 0x180 JUMP JUMPDEST DUP2 ADD DUP2 DUP2 LT PUSH8 0xFFFFFFFFFFFFFFFF DUP3 GT OR ISZERO PUSH3 0x1ED JUMPI PUSH3 0x1EC PUSH3 0x191 JUMP JUMPDEST JUMPDEST DUP1 PUSH1 0x40 MSTORE POP POP POP JUMP JUMPDEST PUSH1 0x0 PUSH3 0x202 PUSH3 0x162 JUMP JUMPDEST SWAP1 POP PUSH3 0x210 DUP3 DUP3 PUSH3 0x1C0 JUMP JUMPDEST SWAP2 SWAP1 POP JUMP JUMPDEST PUSH1 0x0 PUSH8 0xFFFFFFFFFFFFFFFF DUP3 GT ISZERO PUSH3 0x233 JUMPI PUSH3 0x232 PUSH3 0x191 JUMP JUMPDEST JUMPDEST PUSH3 0x23E DUP3 PUSH3 0x180 JUMP JUMPDEST SWAP1 POP PUSH1 0x20 DUP2 ADD SWAP1 POP SWAP2 SWAP1 POP JUMP JUMPDEST PUSH1 0x0 JUMPDEST DUP4 DUP2 LT ISZERO PUSH3 0x26B JUMPI DUP1 DUP3 ADD MLOAD DUP2 DUP5 ADD MSTORE PUSH1 0x20 DUP2 ADD SWAP1 POP PUSH3 0x24E JUMP JUMPDEST PUSH1 0x0 DUP5 DUP5 ADD MSTORE POP POP POP POP JUMP JUMPDEST PUSH1 0x0 PUSH3 0x28E PUSH3 0x288 DUP5 PUSH3 0x215 JUMP JUMPDEST PUSH3 0x1F6 JUMP JUMPDEST SWAP1 POP DUP3 DUP2 MSTORE PUSH1 0x20 DUP2 ADD DUP5 DUP5 DUP5 ADD GT ISZERO PUSH3 0x2AD JUMPI PUSH3 0x2AC PUSH3 0x17B JUMP JUMPDEST JUMPDEST PUSH3 0x2BA DUP5 DUP3 DUP6 PUSH3 0x24B JUMP JUMPDEST POP SWAP4 SWAP3 POP POP POP JUMP JUMPDEST PUSH1 0x0 DUP3 PUSH1 0x1F DUP4 ADD SLT PUSH3 0x2DA JUMPI PUSH3 0x2D9 PUSH3 0x176 JUMP JUMPDEST JUMPDEST DUP2 MLOAD PUSH3 0x2EC DUP5 DUP3 PUSH1 0x20 DUP7 ADD PUSH3 0x277 JUMP JUMPDEST SWAP2 POP POP SWAP3 SWAP2 POP POP JUMP JUMPDEST PUSH1 0x0 PUSH8 0xFFFFFFFFFFFFFFFF DUP3 GT ISZERO PUSH3 0x313 JUMPI PUSH3 0x312 PUSH3 0x191 JUMP JUMPDEST JUMPDEST PUSH1 0x20 DUP3 MUL SWAP1 POP PUSH1 0x20 DUP2 ADD SWAP1 POP SWAP2 SWAP1 POP JUMP JUMPDEST PUSH1 0x0 DUP1 REVERT JUMPDEST PUSH1 0x0 PUSH3 0x340 PUSH3 0x33A DUP5 PUSH3 0x2F5 JUMP JUMPDEST PUSH3 0x1F6 JUMP JUMPDEST SWAP1 POP DUP1 DUP4 DUP3 MSTORE PUSH1 0x20 DUP3 ADD SWAP1 POP PUSH1 0x20 DUP5 MUL DUP4 ADD DUP6 DUP2 GT ISZERO PUSH3 0x366 JUMPI PUSH3 0x365 PUSH3 0x324 JUMP JUMPDEST JUMPDEST DUP4 JUMPDEST DUP2 DUP2 LT ISZERO PUSH3 0x3B4 JUMPI DUP1 MLOAD PUSH8 0xFFFFFFFFFFFFFFFF DUP2 GT ISZERO PUSH3 0x38F JUMPI PUSH3 0x38E PUSH3 0x176 JUMP JUMPDEST JUMPDEST DUP1 DUP7 ADD PUSH3 0x39E DUP10 DUP3 PUSH3 0x2C2 JUMP JUMPDEST DUP6 MSTORE PUSH1 0x20 DUP6 ADD SWAP5 POP POP POP PUSH1 0x20 DUP2 ADD SWAP1 POP PUSH3 0x368 JUMP JUMPDEST POP POP POP SWAP4 SWAP3 POP POP POP JUMP JUMPDEST PUSH1 0x0 DUP3 PUSH1 0x1F DUP4 ADD SLT PUSH3 0x3D6 JUMPI PUSH3 0x3D5 PUSH3 0x176 JUMP JUMPDEST JUMPDEST DUP2 MLOAD PUSH3 0x3E8 DUP5 DUP3 PUSH1 0x20 DUP7 ADD PUSH3 0x329 JUMP JUMPDEST SWAP2 POP POP SWAP3 SWAP2 POP POP JUMP JUMPDEST PUSH1 0x0 DUP2 SWAP1 POP SWAP2 SWAP1 POP JUMP JUMPDEST PUSH3 0x406 DUP2 PUSH3 0x3F1 JUMP JUMPDEST DUP2 EQ PUSH3 0x412 JUMPI PUSH1 0x0 DUP1 REVERT JUMPDEST POP JUMP JUMPDEST PUSH1 0x0 DUP2 MLOAD SWAP1 POP PUSH3 0x426 DUP2 PUSH3 0x3FB JUMP JUMPDEST SWAP3 SWAP2 POP POP JUMP JUMPDEST PUSH1 0x0 DUP1 PUSH1 0x0 PUSH1 0x60 DUP5 DUP7 SUB SLT ISZERO PUSH3 0x448 JUMPI PUSH3 0x447 PUSH3 0x16C JUMP JUMPDEST JUMPDEST PUSH1 0x0 DUP5 ADD MLOAD PUSH8 0xFFFFFFFFFFFFFFFF DUP2 GT ISZERO PUSH3 0x469 JUMPI PUSH3 0x468 PUSH3 0x171 JUMP JUMPDEST JUMPDEST PUSH3 0x477 DUP7 DUP3 DUP8 ADD PUSH3 0x2C2 JUMP JUMPDEST SWAP4 POP POP PUSH1 0x20 DUP5 ADD MLOAD PUSH8 0xFFFFFFFFFFFFFFFF DUP2 GT ISZERO PUSH3 0x49B JUMPI PUSH3 0x49A PUSH3 0x171 JUMP JUMPDEST JUMPDEST PUSH3 0x4A9 DUP7 DUP3 DUP8 ADD PUSH3 0x3BE JUMP JUMPDEST SWAP3 POP POP PUSH1 0x40 PUSH3 0x4BC DUP7 DUP3 DUP8 ADD PUSH3 0x415 JUMP JUMPDEST SWAP2 POP POP SWAP3 POP SWAP3 POP SWAP3 JUMP JUMPDEST PUSH1 0x0 DUP2 MLOAD SWAP1 POP SWAP2 SWAP1 POP JUMP JUMPDEST PUSH32 0x4E487B7100000000000000000000000000000000000000000000000000000000 PUSH1 0x0 MSTORE PUSH1 0x22 PUSH1 0x4 MSTORE PUSH1 0x24 PUSH1 0x0 REVERT JUMPDEST PUSH1 0x0 PUSH1 0x2 DUP3 DIV SWAP1 POP PUSH1 0x1 DUP3 AND DUP1 PUSH3 0x519 JUMPI PUSH1 0x7F DUP3 AND SWAP2 POP JUMPDEST PUSH1 0x20 DUP3 LT DUP2 SUB PUSH3 0x52F JUMPI PUSH3 0x52E PUSH3 0x4D1 JUMP JUMPDEST JUMPDEST POP SWAP2 SWAP1 POP JUMP JUMPDEST PUSH1 0x0 DUP2 SWAP1 POP DUP2 PUSH1 0x0 MSTORE PUSH1 0x20 PUSH1 0x0 KECCAK256 SWAP1 POP SWAP2 SWAP1 POP JUMP JUMPDEST PUSH1 0x0 PUSH1 0x20 PUSH1 0x1F DUP4 ADD DIV SWAP1 POP SWAP2 SWAP1 POP JUMP JUMPDEST PUSH1 0x0 DUP3 DUP3 SHL SWAP1 POP SWAP3 SWAP2 POP POP JUMP JUMPDEST PUSH1 0x0 PUSH1 0x8 DUP4 MUL PUSH3 0x599 PUSH32 0xFFFFFFFFFFFFFFFFFFFFFFFFFFFFFFFFFFFFFFFFFFFFFFFFFFFFFFFFFFFFFFFF DUP3 PUSH3 0x55A JUMP JUMPDEST PUSH3 0x5A5 DUP7 DUP4 PUSH3 0x55A JUMP JUMPDEST SWAP6 POP DUP1 NOT DUP5 AND SWAP4 POP DUP1 DUP7 AND DUP5 OR SWAP3 POP POP POP SWAP4 SWAP3 POP POP POP JUMP JUMPDEST PUSH1 0x0 DUP2 SWAP1 POP SWAP2 SWAP1 POP JUMP JUMPDEST PUSH1 0x0 PUSH3 0x5E8 PUSH3 0x5E2 PUSH3 0x5DC DUP5 PUSH3 0x3F1 JUMP JUMPDEST PUSH3 0x5BD JUMP JUMPDEST PUSH3 0x3F1 JUMP JUMPDEST SWAP1 POP SWAP2 SWAP1 POP JUMP JUMPDEST PUSH1 0x0 DUP2 SWAP1 POP SWAP2 SWAP1 POP JUMP JUMPDEST PUSH3 0x604 DUP4 PUSH3 0x5C7 JUMP JUMPDEST PUSH3 0x61C PUSH3 0x613 DUP3 PUSH3 0x5EF JUMP JUMPDEST DUP5 DUP5 SLOAD PUSH3 0x567 JUMP JUMPDEST DUP3 SSTORE POP POP POP POP JUMP JUMPDEST PUSH1 0x0 SWAP1 JUMP JUMPDEST PUSH3 0x633 PUSH3 0x624 JUMP JUMPDEST PUSH3 0x640 DUP2 DUP5 DUP5 PUSH3 0x5F9 JUMP JUMPDEST POP POP POP JUMP JUMPDEST JUMPDEST DUP2 DUP2 LT ISZERO PUSH3 0x668 JUMPI PUSH3 0x65C PUSH1 0x0 DUP3 PUSH3 0x629 JUMP JUMPDEST PUSH1 0x1 DUP2 ADD SWAP1 POP PUSH3 0x646 JUMP JUMPDEST POP POP JUMP JUMPDEST PUSH1 0x1F DUP3 GT ISZERO PUSH3 0x6B7 JUMPI PUSH3 0x681 DUP2 PUSH3 0x535 JUMP JUMPDEST PUSH3 0x68C DUP5 PUSH3 0x54A JUMP JUMPDEST DUP2 ADD PUSH1 0x20 DUP6 LT ISZERO PUSH3 0x69C JUMPI DUP2 SWAP1 POP JUMPDEST PUSH3 0x6B4 PUSH3 0x6AB DUP6 PUSH3 0x54A JUMP JUMPDEST DUP4 ADD DUP3 PUSH3 0x645 JUMP JUMPDEST POP POP JUMPDEST POP POP POP JUMP JUMPDEST PUSH1 0x0 DUP3 DUP3 SHR SWAP1 POP SWAP3 SWAP2 POP POP JUMP JUMPDEST PUSH1 0x0 PUSH3 0x6DC PUSH1 0x0 NOT DUP5 PUSH1 0x8 MUL PUSH3 0x6BC JUMP JUMPDEST NOT DUP1 DUP4 AND SWAP2 POP POP SWAP3 SWAP2 POP POP JUMP JUMPDEST PUSH1 0x0 PUSH3 0x6F7 DUP4 DUP4 PUSH3 0x6C9 JUMP JUMPDEST SWAP2 POP DUP3 PUSH1 0x2 MUL DUP3 OR SWAP1 POP SWAP3 SWAP2 POP POP JUMP JUMPDEST PUSH3 0x712 DUP3 PUSH3 0x4C6 JUMP JUMPDEST PUSH8 0xFFFFFFFFFFFFFFFF DUP2 GT ISZERO PUSH3 0x72E JUMPI PUSH3 0x72D PUSH3 0x191 JUMP JUMPDEST JUMPDEST PUSH3 0x73A DUP3 SLOAD PUSH3 0x500 JUMP JUMPDEST PUSH3 0x747 DUP3 DUP3 DUP6 PUSH3 0x66C JUMP JUMPDEST PUSH1 0x0 PUSH1 0x20 SWAP1 POP PUSH1 0x1F DUP4 GT PUSH1 0x1 DUP2 EQ PUSH3 0x77F JUMPI PUSH1 0x0 DUP5 ISZERO PUSH3 0x76A JUMPI DUP3 DUP8 ADD MLOAD SWAP1 POP JUMPDEST PUSH3 0x776 DUP6 DUP3 PUSH3 0x6E9 JUMP JUMPDEST DUP7 SSTORE POP PUSH3 0x7E6 JUMP JUMPDEST PUSH1 0x1F NOT DUP5 AND PUSH3 0x78F DUP7 PUSH3 0x535 JUMP JUMPDEST PUSH1 0x0 JUMPDEST DUP3 DUP2 LT ISZERO PUSH3 0x7B9 JUMPI DUP5 DUP10 ADD MLOAD DUP3 SSTORE PUSH1 0x1 DUP3 ADD SWAP2 POP PUSH1 0x20 DUP6 ADD SWAP5 POP PUSH1 0x20 DUP2 ADD SWAP1 POP PUSH3 0x792 JUMP JUMPDEST DUP7 DUP4 LT ISZERO PUSH3 0x7D9 JUMPI DUP5 DUP10 ADD MLOAD PUSH3 0x7D5 PUSH1 0x1F DUP10 AND DUP3 PUSH3 0x6C9 JUMP JUMPDEST DUP4 SSTORE POP JUMPDEST PUSH1 0x1 PUSH1 0x2 DUP9 MUL ADD DUP9 SSTORE POP POP POP JUMPDEST POP POP POP POP POP POP JUMP JUMPDEST PUSH32 0x4E487B7100000000000000000000000000000000000000000000000000000000 PUSH1 0x0 MSTORE PUSH1 0x32 PUSH1 0x4 MSTORE PUSH1 0x24 PUSH1 0x0 REVERT JUMPDEST PUSH32 0x4E487B7100000000000000000000000000000000000000000000000000000000 PUSH1 0x0 MSTORE PUSH1 0x11 PUSH1 0x4 MSTORE PUSH1 0x24 PUSH1 0x0 REVERT JUMPDEST PUSH1 0x0 PUSH3 0x859 DUP3 PUSH3 0x3F1 JUMP JUMPDEST SWAP2 POP PUSH32 0xFFFFFFFFFFFFFFFFFFFFFFFFFFFFFFFFFFFFFFFFFFFFFFFFFFFFFFFFFFFFFFFF DUP3 SUB PUSH3 0x88E JUMPI PUSH3 0x88D PUSH3 0x81D JUMP JUMPDEST JUMPDEST PUSH1 0x1 DUP3 ADD SWAP1 POP SWAP2 SWAP1 POP JUMP JUMPDEST PUSH1 0x0 PUSH3 0x8A6 DUP3 PUSH3 0x3F1 JUMP JUMPDEST SWAP2 POP PUSH3 0x8B3 DUP4 PUSH3 0x3F1 JUMP JUMPDEST SWAP3 POP DUP3 DUP3 MUL PUSH3 0x8C3 DUP2 PUSH3 0x3F1 JUMP JUMPDEST SWAP2 POP DUP3 DUP3 DIV DUP5 EQ DUP4 ISZERO OR PUSH3 0x8DD JUMPI PUSH3 0x8DC PUSH3 0x81D JUMP JUMPDEST JUMPDEST POP SWAP3 SWAP2 POP POP JUMP JUMPDEST PUSH1 0x0 PUSH3 0x8F1 DUP3 PUSH3 0x3F1 JUMP JUMPDEST SWAP2 POP PUSH3 0x8FE DUP4 PUSH3 0x3F1 JUMP JUMPDEST SWAP3 POP DUP3 DUP3 ADD SWAP1 POP DUP1 DUP3 GT ISZERO PUSH3 0x919 JUMPI PUSH3 0x918 PUSH3 0x81D JUMP JUMPDEST JUMPDEST SWAP3 SWAP2 POP POP JUMP JUMPDEST PUSH2 0xC8E DUP1 PUSH3 0x92F PUSH1 0x0 CODECOPY PUSH1 0x0 RETURN INVALID PUSH1 0x80 PUSH1 0x40 MSTORE CALLVALUE DUP1 ISZERO PUSH2 0x10 JUMPI PUSH1 0x0 DUP1 REVERT JUMPDEST POP PUSH1 0x4 CALLDATASIZE LT PUSH2 0x93 JUMPI PUSH1 0x0 CALLDATALOAD PUSH1 0xE0 SHR DUP1 PUSH4 0xA3EC138D GT PUSH2 0x66 JUMPI DUP1 PUSH4 0xA3EC138D EQ PUSH2 0x10E JUMPI DUP1 PUSH4 0xA616C4E5 EQ PUSH2 0x13E JUMPI DUP1 PUSH4 0xE6E6A333 EQ PUSH2 0x15C JUMPI DUP1 PUSH4 0xED35D7E5 EQ PUSH2 0x17A JUMPI DUP1 PUSH4 0xEFB98BCF EQ PUSH2 0x1AB JUMPI PUSH2 0x93 JUMP JUMPDEST DUP1 PUSH4 0x121B93F EQ PUSH2 0x98 JUMPI DUP1 PUSH4 0x3FAD9AE0 EQ PUSH2 0xB4 JUMPI DUP1 PUSH4 0x581C281C EQ PUSH2 0xD2 JUMPI DUP1 PUSH4 0x88CC410A EQ PUSH2 0xF0 JUMPI JUMPDEST PUSH1 0x0 DUP1 REVERT JUMPDEST PUSH2 0xB2 PUSH1 0x4 DUP1 CALLDATASIZE SUB DUP2 ADD SWAP1 PUSH2 0xAD SWAP2 SWAP1 PUSH2 0x666 JUMP JUMPDEST PUSH2 0x1C9 JUMP JUMPDEST STOP JUMPDEST PUSH2 0xBC PUSH2 0x333 JUMP JUMPDEST PUSH1 0x40 MLOAD PUSH2 0xC9 SWAP2 SWAP1 PUSH2 0x723 JUMP JUMPDEST PUSH1 0x40 MLOAD DUP1 SWAP2 SUB SWAP1 RETURN JUMPDEST PUSH2 0xDA PUSH2 0x3C1 JUMP JUMPDEST PUSH1 0x40 MLOAD PUSH2 0xE7 SWAP2 SWAP1 PUSH2 0x760 JUMP JUMPDEST PUSH1 0x40 MLOAD DUP1 SWAP2 SUB SWAP1 RETURN JUMPDEST PUSH2 0xF8 PUSH2 0x3DB JUMP JUMPDEST PUSH1 0x40 MLOAD PUSH2 0x105 SWAP2 SWAP1 PUSH2 0x8D3 JUMP JUMPDEST PUSH1 0x40 MLOAD DUP1 SWAP2 SUB SWAP1 RETURN JUMPDEST PUSH2 0x128 PUSH1 0x4 DUP1 CALLDATASIZE SUB DUP2 ADD SWAP1 PUSH2 0x123 SWAP2 SWAP1 PUSH2 0x953 JUMP JUMPDEST PUSH2 0x4D6 JUMP JUMPDEST PUSH1 0x40 MLOAD PUSH2 0x135 SWAP2 SWAP1 PUSH2 0x760 JUMP JUMPDEST PUSH1 0x40 MLOAD DUP1 SWAP2 SUB SWAP1 RETURN JUMPDEST PUSH2 0x146 PUSH2 0x4F6 JUMP JUMPDEST PUSH1 0x40 MLOAD PUSH2 0x153 SWAP2 SWAP1 PUSH2 0x98F JUMP JUMPDEST PUSH1 0x40 MLOAD DUP1 SWAP2 SUB SWAP1 RETURN JUMPDEST PUSH2 0x164 PUSH2 0x4FC JUMP JUMPDEST PUSH1 0x40 MLOAD PUSH2 0x171 SWAP2 SWAP1 PUSH2 0x98F JUMP JUMPDEST PUSH1 0x40 MLOAD DUP1 SWAP2 SUB SWAP1 RETURN JUMPDEST PUSH2 0x194 PUSH1 0x4 DUP1 CALLDATASIZE SUB DUP2 ADD SWAP1 PUSH2 0x18F SWAP2 SWAP1 PUSH2 0x666 JUMP JUMPDEST PUSH2 0x502 JUMP JUMPDEST PUSH1 0x40 MLOAD PUSH2 0x1A2 SWAP3 SWAP2 SWAP1 PUSH2 0x9AA JUMP JUMPDEST PUSH1 0x40 MLOAD DUP1 SWAP2 SUB SWAP1 RETURN JUMPDEST PUSH2 0x1B3 PUSH2 0x5BE JUMP JUMPDEST PUSH1 0x40 MLOAD PUSH2 0x1C0 SWAP2 SWAP1 PUSH2 0x98F JUMP JUMPDEST PUSH1 0x40 MLOAD DUP1 SWAP2 SUB SWAP1 RETURN JUMPDEST PUSH1 0x3 PUSH1 0x0 CALLER PUSH20 0xFFFFFFFFFFFFFFFFFFFFFFFFFFFFFFFFFFFFFFFF AND PUSH20 0xFFFFFFFFFFFFFFFFFFFFFFFFFFFFFFFFFFFFFFFF AND DUP2 MSTORE PUSH1 0x20 ADD SWAP1 DUP2 MSTORE PUSH1 0x20 ADD PUSH1 0x0 KECCAK256 PUSH1 0x0 SWAP1 SLOAD SWAP1 PUSH2 0x100 EXP SWAP1 DIV PUSH1 0xFF AND ISZERO PUSH2 0x256 JUMPI PUSH1 0x40 MLOAD PUSH32 0x8C379A000000000000000000000000000000000000000000000000000000000 DUP2 MSTORE PUSH1 0x4 ADD PUSH2 0x24D SWAP1 PUSH2 0xA26 JUMP JUMPDEST PUSH1 0x40 MLOAD DUP1 SWAP2 SUB SWAP1 REVERT JUMPDEST PUSH1 0x1 DUP1 SLOAD SWAP1 POP DUP2 LT PUSH2 0x29D JUMPI PUSH1 0x40 MLOAD PUSH32 0x8C379A000000000000000000000000000000000000000000000000000000000 DUP2 MSTORE PUSH1 0x4 ADD PUSH2 0x294 SWAP1 PUSH2 0xA92 JUMP JUMPDEST PUSH1 0x40 MLOAD DUP1 SWAP2 SUB SWAP1 REVERT JUMPDEST PUSH1 0x1 DUP2 DUP2 SLOAD DUP2 LT PUSH2 0x2B1 JUMPI PUSH2 0x2B0 PUSH2 0xAB2 JUMP JUMPDEST JUMPDEST SWAP1 PUSH1 0x0 MSTORE PUSH1 0x20 PUSH1 0x0 KECCAK256 SWAP1 PUSH1 0x2 MUL ADD PUSH1 0x1 ADD PUSH1 0x0 DUP2 SLOAD DUP1 SWAP3 SWAP2 SWAP1 PUSH2 0x2D3 SWAP1 PUSH2 0xB10 JUMP JUMPDEST SWAP2 SWAP1 POP SSTORE POP PUSH1 0x1 PUSH1 0x3 PUSH1 0x0 CALLER PUSH20 0xFFFFFFFFFFFFFFFFFFFFFFFFFFFFFFFFFFFFFFFF AND PUSH20 0xFFFFFFFFFFFFFFFFFFFFFFFFFFFFFFFFFFFFFFFF AND DUP2 MSTORE PUSH1 0x20 ADD SWAP1 DUP2 MSTORE PUSH1 0x20 ADD PUSH1 0x0 KECCAK256 PUSH1 0x0 PUSH2 0x100 EXP DUP2 SLOAD DUP2 PUSH1 0xFF MUL NOT AND SWAP1 DUP4 ISZERO ISZERO MUL OR SWAP1 SSTORE POP POP JUMP JUMPDEST PUSH1 0x0 DUP1 SLOAD PUSH2 0x340 SWAP1 PUSH2 0xB87 JUMP JUMPDEST DUP1 PUSH1 0x1F ADD PUSH1 0x20 DUP1 SWAP2 DIV MUL PUSH1 0x20 ADD PUSH1 0x40 MLOAD SWAP1 DUP2 ADD PUSH1 0x40 MSTORE DUP1 SWAP3 SWAP2 SWAP1 DUP2 DUP2 MSTORE PUSH1 0x20 ADD DUP3 DUP1 SLOAD PUSH2 0x36C SWAP1 PUSH2 0xB87 JUMP JUMPDEST DUP1 ISZERO PUSH2 0x3B9 JUMPI DUP1 PUSH1 0x1F LT PUSH2 0x38E JUMPI PUSH2 0x100 DUP1 DUP4 SLOAD DIV MUL DUP4 MSTORE SWAP2 PUSH1 0x20 ADD SWAP2 PUSH2 0x3B9 JUMP JUMPDEST DUP3 ADD SWAP2 SWAP1 PUSH1 0x0 MSTORE PUSH1 0x20 PUSH1 0x0 KECCAK256 SWAP1 JUMPDEST DUP2 SLOAD DUP2 MSTORE SWAP1 PUSH1 0x1 ADD SWAP1 PUSH1 0x20 ADD DUP1 DUP4 GT PUSH2 0x39C JUMPI DUP3 SWAP1 SUB PUSH1 0x1F AND DUP3 ADD SWAP2 JUMPDEST POP POP POP POP POP DUP2 JUMP JUMPDEST PUSH1 0x0 PUSH1 0x4 SLOAD TIMESTAMP LT ISZERO DUP1 ISZERO PUSH2 0x3D6 JUMPI POP PUSH1 0x5 SLOAD TIMESTAMP LT JUMPDEST SWAP1 POP SWAP1 JUMP JUMPDEST PUSH1 0x60 PUSH1 0x1 DUP1 SLOAD DUP1 PUSH1 0x20 MUL PUSH1 0x20 ADD PUSH1 0x40 MLOAD SWAP1 DUP2 ADD PUSH1 0x40 MSTORE DUP1 SWAP3 SWAP2 SWAP1 DUP2 DUP2 MSTORE PUSH1 0x20 ADD PUSH1 0x0 SWAP1 JUMPDEST DUP3 DUP3 LT ISZERO PUSH2 0x4CD JUMPI DUP4 DUP3 SWAP1 PUSH1 0x0 MSTORE PUSH1 0x20 PUSH1 0x0 KECCAK256 SWAP1 PUSH1 0x2 MUL ADD PUSH1 0x40 MLOAD DUP1 PUSH1 0x40 ADD PUSH1 0x40 MSTORE SWAP1 DUP2 PUSH1 0x0 DUP3 ADD DUP1 SLOAD PUSH2 0x432 SWAP1 PUSH2 0xB87 JUMP JUMPDEST DUP1 PUSH1 0x1F ADD PUSH1 0x20 DUP1 SWAP2 DIV MUL PUSH1 0x20 ADD PUSH1 0x40 MLOAD SWAP1 DUP2 ADD PUSH1 0x40 MSTORE DUP1 SWAP3 SWAP2 SWAP1 DUP2 DUP2 MSTORE PUSH1 0x20 ADD DUP3 DUP1 SLOAD PUSH2 0x45E SWAP1 PUSH2 0xB87 JUMP JUMPDEST DUP1 ISZERO PUSH2 0x4AB JUMPI DUP1 PUSH1 0x1F LT PUSH2 0x480 JUMPI PUSH2 0x100 DUP1 DUP4 SLOAD DIV MUL DUP4 MSTORE SWAP2 PUSH1 0x20 ADD SWAP2 PUSH2 0x4AB JUMP JUMPDEST DUP3 ADD SWAP2 SWAP1 PUSH1 0x0 MSTORE PUSH1 0x20 PUSH1 0x0 KECCAK256 SWAP1 JUMPDEST DUP2 SLOAD DUP2 MSTORE SWAP1 PUSH1 0x1 ADD SWAP1 PUSH1 0x20 ADD DUP1 DUP4 GT PUSH2 0x48E JUMPI DUP3 SWAP1 SUB PUSH1 0x1F AND DUP3 ADD SWAP2 JUMPDEST POP POP POP POP POP DUP2 MSTORE PUSH1 0x20 ADD PUSH1 0x1 DUP3 ADD SLOAD DUP2 MSTORE POP POP DUP2 MSTORE PUSH1 0x20 ADD SWAP1 PUSH1 0x1 ADD SWAP1 PUSH2 0x3FF JUMP JUMPDEST POP POP POP POP SWAP1 POP SWAP1 JUMP JUMPDEST PUSH1 0x3 PUSH1 0x20 MSTORE DUP1 PUSH1 0x0 MSTORE PUSH1 0x40 PUSH1 0x0 KECCAK256 PUSH1 0x0 SWAP2 POP SLOAD SWAP1 PUSH2 0x100 EXP SWAP1 DIV PUSH1 0xFF AND DUP2 JUMP JUMPDEST PUSH1 0x4 SLOAD DUP2 JUMP JUMPDEST PUSH1 0x5 SLOAD DUP2 JUMP JUMPDEST PUSH1 0x1 DUP2 DUP2 SLOAD DUP2 LT PUSH2 0x512 JUMPI PUSH1 0x0 DUP1 REVERT JUMPDEST SWAP1 PUSH1 0x0 MSTORE PUSH1 0x20 PUSH1 0x0 KECCAK256 SWAP1 PUSH1 0x2 MUL ADD PUSH1 0x0 SWAP2 POP SWAP1 POP DUP1 PUSH1 0x0 ADD DUP1 SLOAD PUSH2 0x535 SWAP1 PUSH2 0xB87 JUMP JUMPDEST DUP1 PUSH1 0x1F ADD PUSH1 0x20 DUP1 SWAP2 DIV MUL PUSH1 0x20 ADD PUSH1 0x40 MLOAD SWAP1 DUP2 ADD PUSH1 0x40 MSTORE DUP1 SWAP3 SWAP2 SWAP1 DUP2 DUP2 MSTORE PUSH1 0x20 ADD DUP3 DUP1 SLOAD PUSH2 0x561 SWAP1 PUSH2 0xB87 JUMP JUMPDEST DUP1 ISZERO PUSH2 0x5AE JUMPI DUP1 PUSH1 0x1F LT PUSH2 0x583 JUMPI PUSH2 0x100 DUP1 DUP4 SLOAD DIV MUL DUP4 MSTORE SWAP2 PUSH1 0x20 ADD SWAP2 PUSH2 0x5AE JUMP JUMPDEST DUP3 ADD SWAP2 SWAP1 PUSH1 0x0 MSTORE PUSH1 0x20 PUSH1 0x0 KECCAK256 SWAP1 JUMPDEST DUP2 SLOAD DUP2 MSTORE SWAP1 PUSH1 0x1 ADD SWAP1 PUSH1 0x20 ADD DUP1 DUP4 GT PUSH2 0x591 JUMPI DUP3 SWAP1 SUB PUSH1 0x1F AND DUP3 ADD SWAP2 JUMPDEST POP POP POP POP POP SWAP1 DUP1 PUSH1 0x1 ADD SLOAD SWAP1 POP DUP3 JUMP JUMPDEST PUSH1 0x0 PUSH1 0x4 SLOAD TIMESTAMP LT ISZERO PUSH2 0x605 JUMPI PUSH1 0x40 MLOAD PUSH32 0x8C379A000000000000000000000000000000000000000000000000000000000 DUP2 MSTORE PUSH1 0x4 ADD PUSH2 0x5FC SWAP1 PUSH2 0xC04 JUMP JUMPDEST PUSH1 0x40 MLOAD DUP1 SWAP2 SUB SWAP1 REVERT JUMPDEST PUSH1 0x5 SLOAD TIMESTAMP LT PUSH2 0x617 JUMPI PUSH1 0x0 SWAP1 POP PUSH2 0x628 JUMP JUMPDEST TIMESTAMP PUSH1 0x5 SLOAD PUSH2 0x625 SWAP2 SWAP1 PUSH2 0xC24 JUMP JUMPDEST SWAP1 POP JUMPDEST SWAP1 JUMP JUMPDEST PUSH1 0x0 DUP1 REVERT JUMPDEST PUSH1 0x0 DUP2 SWAP1 POP SWAP2 SWAP1 POP JUMP JUMPDEST PUSH2 0x643 DUP2 PUSH2 0x630 JUMP JUMPDEST DUP2 EQ PUSH2 0x64E JUMPI PUSH1 0x0 DUP1 REVERT JUMPDEST POP JUMP JUMPDEST PUSH1 0x0 DUP2 CALLDATALOAD SWAP1 POP PUSH2 0x660 DUP2 PUSH2 0x63A JUMP JUMPDEST SWAP3 SWAP2 POP POP JUMP JUMPDEST PUSH1 0x0 PUSH1 0x20 DUP3 DUP5 SUB SLT ISZERO PUSH2 0x67C JUMPI PUSH2 0x67B PUSH2 0x62B JUMP JUMPDEST JUMPDEST PUSH1 0x0 PUSH2 0x68A DUP5 DUP3 DUP6 ADD PUSH2 0x651 JUMP JUMPDEST SWAP2 POP POP SWAP3 SWAP2 POP POP JUMP JUMPDEST PUSH1 0x0 DUP2 MLOAD SWAP1 POP SWAP2 SWAP1 POP JUMP JUMPDEST PUSH1 0x0 DUP3 DUP3 MSTORE PUSH1 0x20 DUP3 ADD SWAP1 POP SWAP3 SWAP2 POP POP JUMP JUMPDEST PUSH1 0x0 JUMPDEST DUP4 DUP2 LT ISZERO PUSH2 0x6CD JUMPI DUP1 DUP3 ADD MLOAD DUP2 DUP5 ADD MSTORE PUSH1 0x20 DUP2 ADD SWAP1 POP PUSH2 0x6B2 JUMP JUMPDEST PUSH1 0x0 DUP5 DUP5 ADD MSTORE POP POP POP POP JUMP JUMPDEST PUSH1 0x0 PUSH1 0x1F NOT PUSH1 0x1F DUP4 ADD AND SWAP1 POP SWAP2 SWAP1 POP JUMP JUMPDEST PUSH1 0x0 PUSH2 0x6F5 DUP3 PUSH2 0x693 JUMP JUMPDEST PUSH2 0x6FF DUP2 DUP6 PUSH2 0x69E JUMP JUMPDEST SWAP4 POP PUSH2 0x70F DUP2 DUP6 PUSH1 0x20 DUP7 ADD PUSH2 0x6AF JUMP JUMPDEST PUSH2 0x718 DUP2 PUSH2 0x6D9 JUMP JUMPDEST DUP5 ADD SWAP2 POP POP SWAP3 SWAP2 POP POP JUMP JUMPDEST PUSH1 0x0 PUSH1 0x20 DUP3 ADD SWAP1 POP DUP2 DUP2 SUB PUSH1 0x0 DUP4 ADD MSTORE PUSH2 0x73D DUP2 DUP5 PUSH2 0x6EA JUMP JUMPDEST SWAP1 POP SWAP3 SWAP2 POP POP JUMP JUMPDEST PUSH1 0x0 DUP2 ISZERO ISZERO SWAP1 POP SWAP2 SWAP1 POP JUMP JUMPDEST PUSH2 0x75A DUP2 PUSH2 0x745 JUMP JUMPDEST DUP3 MSTORE POP POP JUMP JUMPDEST PUSH1 0x0 PUSH1 0x20 DUP3 ADD SWAP1 POP PUSH2 0x775 PUSH1 0x0 DUP4 ADD DUP5 PUSH2 0x751 JUMP JUMPDEST SWAP3 SWAP2 POP POP JUMP JUMPDEST PUSH1 0x0 DUP2 MLOAD SWAP1 POP SWAP2 SWAP1 POP JUMP JUMPDEST PUSH1 0x0 DUP3 DUP3 MSTORE PUSH1 0x20 DUP3 ADD SWAP1 POP SWAP3 SWAP2 POP POP JUMP JUMPDEST PUSH1 0x0 DUP2 SWAP1 POP PUSH1 0x20 DUP3 ADD SWAP1 POP SWAP2 SWAP1 POP JUMP JUMPDEST PUSH1 0x0 DUP3 DUP3 MSTORE PUSH1 0x20 DUP3 ADD SWAP1 POP SWAP3 SWAP2 POP POP JUMP JUMPDEST PUSH1 0x0 PUSH2 0x7C3 DUP3 PUSH2 0x693 JUMP JUMPDEST PUSH2 0x7CD DUP2 DUP6 PUSH2 0x7A7 JUMP JUMPDEST SWAP4 POP PUSH2 0x7DD DUP2 DUP6 PUSH1 0x20 DUP7 ADD PUSH2 0x6AF JUMP JUMPDEST PUSH2 0x7E6 DUP2 PUSH2 0x6D9 JUMP JUMPDEST DUP5 ADD SWAP2 POP POP SWAP3 SWAP2 POP POP JUMP JUMPDEST PUSH2 0x7FA DUP2 PUSH2 0x630 JUMP JUMPDEST DUP3 MSTORE POP POP JUMP JUMPDEST PUSH1 0x0 PUSH1 0x40 DUP4 ADD PUSH1 0x0 DUP4 ADD MLOAD DUP5 DUP3 SUB PUSH1 0x0 DUP7 ADD MSTORE PUSH2 0x81D DUP3 DUP3 PUSH2 0x7B8 JUMP JUMPDEST SWAP2 POP POP PUSH1 0x20 DUP4 ADD MLOAD PUSH2 0x832 PUSH1 0x20 DUP7 ADD DUP3 PUSH2 0x7F1 JUMP JUMPDEST POP DUP1 SWAP2 POP POP SWAP3 SWAP2 POP POP JUMP JUMPDEST PUSH1 0x0 PUSH2 0x849 DUP4 DUP4 PUSH2 0x800 JUMP JUMPDEST SWAP1 POP SWAP3 SWAP2 POP POP JUMP JUMPDEST PUSH1 0x0 PUSH1 0x20 DUP3 ADD SWAP1 POP SWAP2 SWAP1 POP JUMP JUMPDEST PUSH1 0x0 PUSH2 0x869 DUP3 PUSH2 0x77B JUMP JUMPDEST PUSH2 0x873 DUP2 DUP6 PUSH2 0x786 JUMP JUMPDEST SWAP4 POP DUP4 PUSH1 0x20 DUP3 MUL DUP6 ADD PUSH2 0x885 DUP6 PUSH2 0x797 JUMP JUMPDEST DUP1 PUSH1 0x0 JUMPDEST DUP6 DUP2 LT ISZERO PUSH2 0x8C1 JUMPI DUP5 DUP5 SUB DUP10 MSTORE DUP2 MLOAD PUSH2 0x8A2 DUP6 DUP3 PUSH2 0x83D JUMP JUMPDEST SWAP5 POP PUSH2 0x8AD DUP4 PUSH2 0x851 JUMP JUMPDEST SWAP3 POP PUSH1 0x20 DUP11 ADD SWAP10 POP POP PUSH1 0x1 DUP2 ADD SWAP1 POP PUSH2 0x889 JUMP JUMPDEST POP DUP3 SWAP8 POP DUP8 SWAP6 POP POP POP POP POP POP SWAP3 SWAP2 POP POP JUMP JUMPDEST PUSH1 0x0 PUSH1 0x20 DUP3 ADD SWAP1 POP DUP2 DUP2 SUB PUSH1 0x0 DUP4 ADD MSTORE PUSH2 0x8ED DUP2 DUP5 PUSH2 0x85E JUMP JUMPDEST SWAP1 POP SWAP3 SWAP2 POP POP JUMP JUMPDEST PUSH1 0x0 PUSH20 0xFFFFFFFFFFFFFFFFFFFFFFFFFFFFFFFFFFFFFFFF DUP3 AND SWAP1 POP SWAP2 SWAP1 POP JUMP JUMPDEST PUSH1 0x0 PUSH2 0x920 DUP3 PUSH2 0x8F5 JUMP JUMPDEST SWAP1 POP SWAP2 SWAP1 POP JUMP JUMPDEST PUSH2 0x930 DUP2 PUSH2 0x915 JUMP JUMPDEST DUP2 EQ PUSH2 0x93B JUMPI PUSH1 0x0 DUP1 REVERT JUMPDEST POP JUMP JUMPDEST PUSH1 0x0 DUP2 CALLDATALOAD SWAP1 POP PUSH2 0x94D DUP2 PUSH2 0x927 JUMP JUMPDEST SWAP3 SWAP2 POP POP JUMP JUMPDEST PUSH1 0x0 PUSH1 0x20 DUP3 DUP5 SUB SLT ISZERO PUSH2 0x969 JUMPI PUSH2 0x968 PUSH2 0x62B JUMP JUMPDEST JUMPDEST PUSH1 0x0 PUSH2 0x977 DUP5 DUP3 DUP6 ADD PUSH2 0x93E JUMP JUMPDEST SWAP2 POP POP SWAP3 SWAP2 POP POP JUMP JUMPDEST PUSH2 0x989 DUP2 PUSH2 0x630 JUMP JUMPDEST DUP3 MSTORE POP POP JUMP JUMPDEST PUSH1 0x0 PUSH1 0x20 DUP3 ADD SWAP1 POP PUSH2 0x9A4 PUSH1 0x0 DUP4 ADD DUP5 PUSH2 0x980 JUMP JUMPDEST SWAP3 SWAP2 POP POP JUMP JUMPDEST PUSH1 0x0 PUSH1 0x40 DUP3 ADD SWAP1 POP DUP2 DUP2 SUB PUSH1 0x0 DUP4 ADD MSTORE PUSH2 0x9C4 DUP2 DUP6 PUSH2 0x6EA JUMP JUMPDEST SWAP1 POP PUSH2 0x9D3 PUSH1 0x20 DUP4 ADD DUP5 PUSH2 0x980 JUMP JUMPDEST SWAP4 SWAP3 POP POP POP JUMP JUMPDEST PUSH32 0x596F75206861766520616C726561647920766F74656400000000000000000000 PUSH1 0x0 DUP3 ADD MSTORE POP JUMP JUMPDEST PUSH1 0x0 PUSH2 0xA10 PUSH1 0x16 DUP4 PUSH2 0x69E JUMP JUMPDEST SWAP2 POP PUSH2 0xA1B DUP3 PUSH2 0x9DA JUMP JUMPDEST PUSH1 0x20 DUP3 ADD SWAP1 POP SWAP2 SWAP1 POP JUMP JUMPDEST PUSH1 0x0 PUSH1 0x20 DUP3 ADD SWAP1 POP DUP2 DUP2 SUB PUSH1 0x0 DUP4 ADD MSTORE PUSH2 0xA3F DUP2 PUSH2 0xA03 JUMP JUMPDEST SWAP1 POP SWAP2 SWAP1 POP JUMP JUMPDEST PUSH32 0x496E76616C696420726573706F6E736520696E64657800000000000000000000 PUSH1 0x0 DUP3 ADD MSTORE POP JUMP JUMPDEST PUSH1 0x0 PUSH2 0xA7C PUSH1 0x16 DUP4 PUSH2 0x69E JUMP JUMPDEST SWAP2 POP PUSH2 0xA87 DUP3 PUSH2 0xA46 JUMP JUMPDEST PUSH1 0x20 DUP3 ADD SWAP1 POP SWAP2 SWAP1 POP JUMP JUMPDEST PUSH1 0x0 PUSH1 0x20 DUP3 ADD SWAP1 POP DUP2 DUP2 SUB PUSH1 0x0 DUP4 ADD MSTORE PUSH2 0xAAB DUP2 PUSH2 0xA6F JUMP JUMPDEST SWAP1 POP SWAP2 SWAP1 POP JUMP JUMPDEST PUSH32 0x4E487B7100000000000000000000000000000000000000000000000000000000 PUSH1 0x0 MSTORE PUSH1 0x32 PUSH1 0x4 MSTORE PUSH1 0x24 PUSH1 0x0 REVERT JUMPDEST PUSH32 0x4E487B7100000000000000000000000000000000000000000000000000000000 PUSH1 0x0 MSTORE PUSH1 0x11 PUSH1 0x4 MSTORE PUSH1 0x24 PUSH1 0x0 REVERT JUMPDEST PUSH1 0x0 PUSH2 0xB1B DUP3 PUSH2 0x630 JUMP JUMPDEST SWAP2 POP PUSH32 0xFFFFFFFFFFFFFFFFFFFFFFFFFFFFFFFFFFFFFFFFFFFFFFFFFFFFFFFFFFFFFFFF DUP3 SUB PUSH2 0xB4D JUMPI PUSH2 0xB4C PUSH2 0xAE1 JUMP JUMPDEST JUMPDEST PUSH1 0x1 DUP3 ADD SWAP1 POP SWAP2 SWAP1 POP JUMP JUMPDEST PUSH32 0x4E487B7100000000000000000000000000000000000000000000000000000000 PUSH1 0x0 MSTORE PUSH1 0x22 PUSH1 0x4 MSTORE PUSH1 0x24 PUSH1 0x0 REVERT JUMPDEST PUSH1 0x0 PUSH1 0x2 DUP3 DIV SWAP1 POP PUSH1 0x1 DUP3 AND DUP1 PUSH2 0xB9F JUMPI PUSH1 0x7F DUP3 AND SWAP2 POP JUMPDEST PUSH1 0x20 DUP3 LT DUP2 SUB PUSH2 0xBB2 JUMPI PUSH2 0xBB1 PUSH2 0xB58 JUMP JUMPDEST JUMPDEST POP SWAP2 SWAP1 POP JUMP JUMPDEST PUSH32 0x566F746520686173206E6F742073746172746564207965740000000000000000 PUSH1 0x0 DUP3 ADD MSTORE POP JUMP JUMPDEST PUSH1 0x0 PUSH2 0xBEE PUSH1 0x18 DUP4 PUSH2 0x69E JUMP JUMPDEST SWAP2 POP PUSH2 0xBF9 DUP3 PUSH2 0xBB8 JUMP JUMPDEST PUSH1 0x20 DUP3 ADD SWAP1 POP SWAP2 SWAP1 POP JUMP JUMPDEST PUSH1 0x0 PUSH1 0x20 DUP3 ADD SWAP1 POP DUP2 DUP2 SUB PUSH1 0x0 DUP4 ADD MSTORE PUSH2 0xC1D DUP2 PUSH2 0xBE1 JUMP JUMPDEST SWAP1 POP SWAP2 SWAP1 POP JUMP JUMPDEST PUSH1 0x0 PUSH2 0xC2F DUP3 PUSH2 0x630 JUMP JUMPDEST SWAP2 POP PUSH2 0xC3A DUP4 PUSH2 0x630 JUMP JUMPDEST SWAP3 POP DUP3 DUP3 SUB SWAP1 POP DUP2 DUP2 GT ISZERO PUSH2 0xC52 JUMPI PUSH2 0xC51 PUSH2 0xAE1 JUMP JUMPDEST JUMPDEST SWAP3 SWAP2 POP POP JUMP INVALID LOG2 PUSH5 0x6970667358 0x22 SLT KECCAK256 0xEE DUP8 CALLDATASIZE BYTE CALLER CODECOPY GASPRICE 0xCD SELFDESTRUCT SWAP3 DUP1 SWAP12 LOG1 0xC0 0xA9 0x2E SSTORE 0x4D PUSH7 0x3A26989367D900 PUSH25 0x760349CE5A64736F6C63430008130033000000000000000000 "},"methodIdentifiers":{"getAllVotesForResponses()":"88cc410a","getRemainingTime()":"efb98bcf","getVotingStatus()":"581c281c","question()":"3fad9ae0","responses(uint256)":"ed35d7e5","vote(uint256)":"0121b93f","vote_end_date()":"e6e6a333","vote_start_date()":"a616c4e5","voters(address)":"a3ec138d"}}}}}