{
  "_format": "hh-sol-artifact-1",
  "contractName": "FreeVoting",
  "sourceName": "contracts/FreeVoting.sol",
  "abi": [
    {
      "inputs": [],
      "stateMutability": "nonpayable",
      "type": "constructor"
    },
    {
      "inputs": [
        {
          "internalType": "string",
          "name": "_testValue",
          "type": "string"
        }
      ],
      "name": "setTestValue",
      "outputs": [],
      "stateMutability": "nonpayable",
      "type": "function"
    },
    {
      "inputs": [],
      "name": "test",
      "outputs": [
        {
          "internalType": "string",
          "name": "",
          "type": "string"
        }
      ],
      "stateMutability": "view",
      "type": "function"
    }
  ],
  "bytecode": "0x608060405234801561001057600080fd5b506100556040518060400160405280601781526020017f536d61727420436f6e7472616374206465706c6f79656400000000000000000081525061005a60201b60201c565b61023b565b6100f68160405160240161006e91906101ea565b6040516020818303038152906040527f41304fac000000000000000000000000000000000000000000000000000000007bffffffffffffffffffffffffffffffffffffffffffffffffffffffff19166020820180517bffffffffffffffffffffffffffffffffffffffffffffffffffffffff83818316178352505050506100f960201b60201c565b50565b61011a8161011561011d60201b61011a1761013e60201b60201c565b60201c565b50565b60006a636f6e736f6c652e6c6f679050600080835160208501845afa505050565b61015060201b61013b17819050919050565b61015861020c565b565b600081519050919050565b600082825260208201905092915050565b60005b83811015610194578082015181840152602081019050610179565b60008484015250505050565b6000601f19601f8301169050919050565b60006101bc8261015a565b6101c68185610165565b93506101d6818560208601610176565b6101df816101a0565b840191505092915050565b6000602082019050818103600083015261020481846101b1565b905092915050565b7f4e487b7100000000000000000000000000000000000000000000000000000000600052605160045260246000fd5b6106d68061024a6000396000f3fe608060405234801561001057600080fd5b50600436106100365760003560e01c8063c6e8880b1461003b578063f8a8fd6d14610057575b600080fd5b6100556004803603810190610050919061029f565b610075565b005b61005f610088565b60405161006c9190610367565b60405180910390f35b8060009081610084919061059f565b5050565b606060008054610097906103b8565b80601f01602080910402602001604051908101604052809291908181526020018280546100c3906103b8565b80156101105780601f106100e557610100808354040283529160200191610110565b820191906000526020600020905b8154815290600101906020018083116100f357829003601f168201915b5050505050905090565b60006a636f6e736f6c652e6c6f679050600080835160208501845afa505050565b610143610671565b565b6000604051905090565b600080fd5b600080fd5b600080fd5b600080fd5b6000601f19601f8301169050919050565b7f4e487b7100000000000000000000000000000000000000000000000000000000600052604160045260246000fd5b6101ac82610163565b810181811067ffffffffffffffff821117156101cb576101ca610174565b5b80604052505050565b60006101de610145565b90506101ea82826101a3565b919050565b600067ffffffffffffffff82111561020a57610209610174565b5b61021382610163565b9050602081019050919050565b82818337600083830152505050565b600061024261023d846101ef565b6101d4565b90508281526020810184848401111561025e5761025d61015e565b5b610269848285610220565b509392505050565b600082601f83011261028657610285610159565b5b813561029684826020860161022f565b91505092915050565b6000602082840312156102b5576102b461014f565b5b600082013567ffffffffffffffff8111156102d3576102d2610154565b5b6102df84828501610271565b91505092915050565b600081519050919050565b600082825260208201905092915050565b60005b83811015610322578082015181840152602081019050610307565b60008484015250505050565b6000610339826102e8565b61034381856102f3565b9350610353818560208601610304565b61035c81610163565b840191505092915050565b60006020820190508181036000830152610381818461032e565b905092915050565b7f4e487b7100000000000000000000000000000000000000000000000000000000600052602260045260246000fd5b600060028204905060018216806103d057607f821691505b6020821081036103e3576103e2610389565b5b50919050565b60008190508160005260206000209050919050565b60006020601f8301049050919050565b600082821b905092915050565b60006008830261044b7fffffffffffffffffffffffffffffffffffffffffffffffffffffffffffffffff8261040e565b610455868361040e565b95508019841693508086168417925050509392505050565b6000819050919050565b6000819050919050565b600061049c6104976104928461046d565b610477565b61046d565b9050919050565b6000819050919050565b6104b683610481565b6104ca6104c2826104a3565b84845461041b565b825550505050565b600090565b6104df6104d2565b6104ea8184846104ad565b505050565b5b8181101561050e576105036000826104d7565b6001810190506104f0565b5050565b601f82111561055357610524816103e9565b61052d846103fe565b8101602085101561053c578190505b610550610548856103fe565b8301826104ef565b50505b505050565b600082821c905092915050565b600061057660001984600802610558565b1980831691505092915050565b600061058f8383610565565b9150826002028217905092915050565b6105a8826102e8565b67ffffffffffffffff8111156105c1576105c0610174565b5b6105cb82546103b8565b6105d6828285610512565b600060209050601f83116001811461060957600084156105f7578287015190505b6106018582610583565b865550610669565b601f198416610617866103e9565b60005b8281101561063f5784890151825560018201915060208501945060208101905061061a565b8683101561065c5784890151610658601f891682610565565b8355505b6001600288020188555050505b505050505050565b7f4e487b7100000000000000000000000000000000000000000000000000000000600052605160045260246000fdfea2646970667358221220b0c5eed227ba989c99cc0b174de7b53b7de4c9d38b2e25b8b30ebfce3ed7dbf564736f6c63430008130033",
  "linkReferences": {},
  "deployedLinkReferences": {}
}