{
  "_format": "hh-sol-artifact-1",
  "contractName": "FreeVoting",
  "sourceName": "contracts/FreeVoting.sol",
  "abi": [
    {
      "inputs": [
        {
          "internalType": "string",
          "name": "_question",
          "type": "string"
        },
        {
          "internalType": "string[]",
          "name": "_availableResponses",
          "type": "string[]"
        },
        {
          "internalType": "uint256",
          "name": "_durationInMinutes",
          "type": "uint256"
        }
      ],
      "stateMutability": "nonpayable",
      "type": "constructor"
    },
    {
      "inputs": [],
      "name": "getAllVotesForResponses",
      "outputs": [
        {
          "components": [
            {
              "internalType": "string",
              "name": "response",
              "type": "string"
            },
            {
              "internalType": "uint256",
              "name": "voteCount",
              "type": "uint256"
            }
          ],
          "internalType": "struct FreeVoting.Response[]",
          "name": "",
          "type": "tuple[]"
        }
      ],
      "stateMutability": "view",
      "type": "function"
    },
    {
      "inputs": [],
      "name": "getRemainingTime",
      "outputs": [
        {
          "internalType": "uint256",
          "name": "",
          "type": "uint256"
        }
      ],
      "stateMutability": "view",
      "type": "function"
    },
    {
      "inputs": [],
      "name": "getVotingStatus",
      "outputs": [
        {
          "internalType": "bool",
          "name": "",
          "type": "bool"
        }
      ],
      "stateMutability": "view",
      "type": "function"
    },
    {
      "inputs": [],
      "name": "question",
      "outputs": [
        {
          "internalType": "string",
          "name": "",
          "type": "string"
        }
      ],
      "stateMutability": "view",
      "type": "function"
    },
    {
      "inputs": [
        {
          "internalType": "uint256",
          "name": "",
          "type": "uint256"
        }
      ],
      "name": "responses",
      "outputs": [
        {
          "internalType": "string",
          "name": "response",
          "type": "string"
        },
        {
          "internalType": "uint256",
          "name": "voteCount",
          "type": "uint256"
        }
      ],
      "stateMutability": "view",
      "type": "function"
    },
    {
      "inputs": [
        {
          "internalType": "uint256",
          "name": "_responseIndex",
          "type": "uint256"
        }
      ],
      "name": "vote",
      "outputs": [],
      "stateMutability": "nonpayable",
      "type": "function"
    },
    {
      "inputs": [],
      "name": "vote_end_date",
      "outputs": [
        {
          "internalType": "uint256",
          "name": "",
          "type": "uint256"
        }
      ],
      "stateMutability": "view",
      "type": "function"
    },
    {
      "inputs": [],
      "name": "vote_start_date",
      "outputs": [
        {
          "internalType": "uint256",
          "name": "",
          "type": "uint256"
        }
      ],
      "stateMutability": "view",
      "type": "function"
    },
    {
      "inputs": [
        {
          "internalType": "address",
          "name": "",
          "type": "address"
        }
      ],
      "name": "voters",
      "outputs": [
        {
          "internalType": "bool",
          "name": "",
          "type": "bool"
        }
      ],
      "stateMutability": "view",
      "type": "function"
    }
  ],
  "bytecode": "0x60806040523480156200001157600080fd5b50604051620015bd380380620015bd83398181016040528101906200003791906200042c565b826000908162000048919062000707565b5060005b8251811015620000ee5760016040518060400160405280858481518110620000795762000078620007ee565b5b60200260200101518152602001600081525090806001815401808255809150506001900390600052602060002090600202016000909190919091506000820151816000019081620000cb919062000707565b506020820151816001015550508080620000e5906200084c565b9150506200004c565b5033600260006101000a81548173ffffffffffffffffffffffffffffffffffffffff021916908373ffffffffffffffffffffffffffffffffffffffff16021790555042600481905550603c8162000146919062000899565b42620001539190620008e4565b6005819055505050506200091f565b6000604051905090565b600080fd5b600080fd5b600080fd5b600080fd5b6000601f19601f8301169050919050565b7f4e487b7100000000000000000000000000000000000000000000000000000000600052604160045260246000fd5b620001cb8262000180565b810181811067ffffffffffffffff82111715620001ed57620001ec62000191565b5b80604052505050565b60006200020262000162565b9050620002108282620001c0565b919050565b600067ffffffffffffffff82111562000233576200023262000191565b5b6200023e8262000180565b9050602081019050919050565b60005b838110156200026b5780820151818401526020810190506200024e565b60008484015250505050565b60006200028e620002888462000215565b620001f6565b905082815260208101848484011115620002ad57620002ac6200017b565b5b620002ba8482856200024b565b509392505050565b600082601f830112620002da57620002d962000176565b5b8151620002ec84826020860162000277565b91505092915050565b600067ffffffffffffffff82111562000313576200031262000191565b5b602082029050602081019050919050565b600080fd5b6000620003406200033a84620002f5565b620001f6565b9050808382526020820190506020840283018581111562000366576200036562000324565b5b835b81811015620003b457805167ffffffffffffffff8111156200038f576200038e62000176565b5b8086016200039e8982620002c2565b8552602085019450505060208101905062000368565b5050509392505050565b600082601f830112620003d657620003d562000176565b5b8151620003e884826020860162000329565b91505092915050565b6000819050919050565b6200040681620003f1565b81146200041257600080fd5b50565b6000815190506200042681620003fb565b92915050565b6000806000606084860312156200044857620004476200016c565b5b600084015167ffffffffffffffff81111562000469576200046862000171565b5b6200047786828701620002c2565b935050602084015167ffffffffffffffff8111156200049b576200049a62000171565b5b620004a986828701620003be565b9250506040620004bc8682870162000415565b9150509250925092565b600081519050919050565b7f4e487b7100000000000000000000000000000000000000000000000000000000600052602260045260246000fd5b600060028204905060018216806200051957607f821691505b6020821081036200052f576200052e620004d1565b5b50919050565b60008190508160005260206000209050919050565b60006020601f8301049050919050565b600082821b905092915050565b600060088302620005997fffffffffffffffffffffffffffffffffffffffffffffffffffffffffffffffff826200055a565b620005a586836200055a565b95508019841693508086168417925050509392505050565b6000819050919050565b6000620005e8620005e2620005dc84620003f1565b620005bd565b620003f1565b9050919050565b6000819050919050565b6200060483620005c7565b6200061c6200061382620005ef565b84845462000567565b825550505050565b600090565b6200063362000624565b62000640818484620005f9565b505050565b5b8181101562000668576200065c60008262000629565b60018101905062000646565b5050565b601f821115620006b757620006818162000535565b6200068c846200054a565b810160208510156200069c578190505b620006b4620006ab856200054a565b83018262000645565b50505b505050565b600082821c905092915050565b6000620006dc60001984600802620006bc565b1980831691505092915050565b6000620006f78383620006c9565b9150826002028217905092915050565b6200071282620004c6565b67ffffffffffffffff8111156200072e576200072d62000191565b5b6200073a825462000500565b620007478282856200066c565b600060209050601f8311600181146200077f57600084156200076a578287015190505b620007768582620006e9565b865550620007e6565b601f1984166200078f8662000535565b60005b82811015620007b95784890151825560018201915060208501945060208101905062000792565b86831015620007d95784890151620007d5601f891682620006c9565b8355505b6001600288020188555050505b505050505050565b7f4e487b7100000000000000000000000000000000000000000000000000000000600052603260045260246000fd5b7f4e487b7100000000000000000000000000000000000000000000000000000000600052601160045260246000fd5b60006200085982620003f1565b91507fffffffffffffffffffffffffffffffffffffffffffffffffffffffffffffffff82036200088e576200088d6200081d565b5b600182019050919050565b6000620008a682620003f1565b9150620008b383620003f1565b9250828202620008c381620003f1565b91508282048414831517620008dd57620008dc6200081d565b5b5092915050565b6000620008f182620003f1565b9150620008fe83620003f1565b92508282019050808211156200091957620009186200081d565b5b92915050565b610c8e806200092f6000396000f3fe608060405234801561001057600080fd5b50600436106100935760003560e01c8063a3ec138d11610066578063a3ec138d1461010e578063a616c4e51461013e578063e6e6a3331461015c578063ed35d7e51461017a578063efb98bcf146101ab57610093565b80630121b93f146100985780633fad9ae0146100b4578063581c281c146100d257806388cc410a146100f0575b600080fd5b6100b260048036038101906100ad9190610666565b6101c9565b005b6100bc610333565b6040516100c99190610723565b60405180910390f35b6100da6103c1565b6040516100e79190610760565b60405180910390f35b6100f86103db565b60405161010591906108d3565b60405180910390f35b61012860048036038101906101239190610953565b6104d6565b6040516101359190610760565b60405180910390f35b6101466104f6565b604051610153919061098f565b60405180910390f35b6101646104fc565b604051610171919061098f565b60405180910390f35b610194600480360381019061018f9190610666565b610502565b6040516101a29291906109aa565b60405180910390f35b6101b36105be565b6040516101c0919061098f565b60405180910390f35b600360003373ffffffffffffffffffffffffffffffffffffffff1673ffffffffffffffffffffffffffffffffffffffff16815260200190815260200160002060009054906101000a900460ff1615610256576040517f08c379a000000000000000000000000000000000000000000000000000000000815260040161024d90610a26565b60405180910390fd5b600180549050811061029d576040517f08c379a000000000000000000000000000000000000000000000000000000000815260040161029490610a92565b60405180910390fd5b600181815481106102b1576102b0610ab2565b5b906000526020600020906002020160010160008154809291906102d390610b10565b91905055506001600360003373ffffffffffffffffffffffffffffffffffffffff1673ffffffffffffffffffffffffffffffffffffffff16815260200190815260200160002060006101000a81548160ff02191690831515021790555050565b6000805461034090610b87565b80601f016020809104026020016040519081016040528092919081815260200182805461036c90610b87565b80156103b95780601f1061038e576101008083540402835291602001916103b9565b820191906000526020600020905b81548152906001019060200180831161039c57829003601f168201915b505050505081565b600060045442101580156103d6575060055442105b905090565b60606001805480602002602001604051908101604052809291908181526020016000905b828210156104cd578382906000526020600020906002020160405180604001604052908160008201805461043290610b87565b80601f016020809104026020016040519081016040528092919081815260200182805461045e90610b87565b80156104ab5780601f10610480576101008083540402835291602001916104ab565b820191906000526020600020905b81548152906001019060200180831161048e57829003601f168201915b50505050508152602001600182015481525050815260200190600101906103ff565b50505050905090565b60036020528060005260406000206000915054906101000a900460ff1681565b60045481565b60055481565b6001818154811061051257600080fd5b906000526020600020906002020160009150905080600001805461053590610b87565b80601f016020809104026020016040519081016040528092919081815260200182805461056190610b87565b80156105ae5780601f10610583576101008083540402835291602001916105ae565b820191906000526020600020905b81548152906001019060200180831161059157829003601f168201915b5050505050908060010154905082565b6000600454421015610605576040517f08c379a00000000000000000000000000000000000000000000000000000000081526004016105fc90610c04565b60405180910390fd5b60055442106106175760009050610628565b426005546106259190610c24565b90505b90565b600080fd5b6000819050919050565b61064381610630565b811461064e57600080fd5b50565b6000813590506106608161063a565b92915050565b60006020828403121561067c5761067b61062b565b5b600061068a84828501610651565b91505092915050565b600081519050919050565b600082825260208201905092915050565b60005b838110156106cd5780820151818401526020810190506106b2565b60008484015250505050565b6000601f19601f8301169050919050565b60006106f582610693565b6106ff818561069e565b935061070f8185602086016106af565b610718816106d9565b840191505092915050565b6000602082019050818103600083015261073d81846106ea565b905092915050565b60008115159050919050565b61075a81610745565b82525050565b60006020820190506107756000830184610751565b92915050565b600081519050919050565b600082825260208201905092915050565b6000819050602082019050919050565b600082825260208201905092915050565b60006107c382610693565b6107cd81856107a7565b93506107dd8185602086016106af565b6107e6816106d9565b840191505092915050565b6107fa81610630565b82525050565b6000604083016000830151848203600086015261081d82826107b8565b915050602083015161083260208601826107f1565b508091505092915050565b60006108498383610800565b905092915050565b6000602082019050919050565b60006108698261077b565b6108738185610786565b93508360208202850161088585610797565b8060005b858110156108c157848403895281516108a2858261083d565b94506108ad83610851565b925060208a01995050600181019050610889565b50829750879550505050505092915050565b600060208201905081810360008301526108ed818461085e565b905092915050565b600073ffffffffffffffffffffffffffffffffffffffff82169050919050565b6000610920826108f5565b9050919050565b61093081610915565b811461093b57600080fd5b50565b60008135905061094d81610927565b92915050565b6000602082840312156109695761096861062b565b5b60006109778482850161093e565b91505092915050565b61098981610630565b82525050565b60006020820190506109a46000830184610980565b92915050565b600060408201905081810360008301526109c481856106ea565b90506109d36020830184610980565b9392505050565b7f596f75206861766520616c726561647920766f74656400000000000000000000600082015250565b6000610a1060168361069e565b9150610a1b826109da565b602082019050919050565b60006020820190508181036000830152610a3f81610a03565b9050919050565b7f496e76616c696420726573706f6e736520696e64657800000000000000000000600082015250565b6000610a7c60168361069e565b9150610a8782610a46565b602082019050919050565b60006020820190508181036000830152610aab81610a6f565b9050919050565b7f4e487b7100000000000000000000000000000000000000000000000000000000600052603260045260246000fd5b7f4e487b7100000000000000000000000000000000000000000000000000000000600052601160045260246000fd5b6000610b1b82610630565b91507fffffffffffffffffffffffffffffffffffffffffffffffffffffffffffffffff8203610b4d57610b4c610ae1565b5b600182019050919050565b7f4e487b7100000000000000000000000000000000000000000000000000000000600052602260045260246000fd5b60006002820490506001821680610b9f57607f821691505b602082108103610bb257610bb1610b58565b5b50919050565b7f566f746520686173206e6f742073746172746564207965740000000000000000600082015250565b6000610bee60188361069e565b9150610bf982610bb8565b602082019050919050565b60006020820190508181036000830152610c1d81610be1565b9050919050565b6000610c2f82610630565b9150610c3a83610630565b9250828203905081811115610c5257610c51610ae1565b5b9291505056fea2646970667358221220ee87361a33393acdff92809ba1c0a92e554d663a26989367d90078760349ce5a64736f6c63430008130033",
  "linkReferences": {},
  "deployedLinkReferences": {}
}